{
  "_format": "hh-sol-artifact-1",
  "contractName": "NFTMarket",
  "sourceName": "contracts/NFTMarket.sol",
  "abi": [
    {
      "inputs": [],
      "stateMutability": "nonpayable",
      "type": "constructor"
    },
    {
      "anonymous": false,
      "inputs": [
        {
          "indexed": true,
          "internalType": "uint256",
          "name": "itemId",
          "type": "uint256"
        },
        {
          "indexed": true,
          "internalType": "address",
          "name": "nftContract",
          "type": "address"
        },
        {
          "indexed": true,
          "internalType": "uint256",
          "name": "tokenId",
          "type": "uint256"
        },
        {
          "indexed": false,
          "internalType": "address",
          "name": "seller",
          "type": "address"
        },
        {
          "indexed": false,
          "internalType": "address",
          "name": "owner",
          "type": "address"
        },
        {
          "indexed": false,
          "internalType": "uint256",
          "name": "price",
          "type": "uint256"
        },
        {
          "indexed": false,
          "internalType": "bool",
          "name": "sold",
          "type": "bool"
        }
      ],
      "name": "marketItemCreated",
      "type": "event"
    },
    {
      "inputs": [
        {
          "internalType": "address",
          "name": "nftContract",
          "type": "address"
        },
        {
          "internalType": "uint256",
          "name": "tokenId",
          "type": "uint256"
        },
        {
          "internalType": "uint256",
          "name": "price",
          "type": "uint256"
        }
      ],
      "name": "createMarketItem",
      "outputs": [],
      "stateMutability": "payable",
      "type": "function"
    },
    {
      "inputs": [
        {
          "internalType": "address",
          "name": "nftContract",
          "type": "address"
        },
        {
          "internalType": "uint256",
          "name": "itemId",
          "type": "uint256"
        }
      ],
      "name": "createMarketSale",
      "outputs": [],
      "stateMutability": "nonpayable",
      "type": "function"
    },
    {
      "inputs": [],
      "name": "fetchItemsCreated",
      "outputs": [
        {
          "components": [
            {
              "internalType": "uint256",
              "name": "itemId",
              "type": "uint256"
            },
            {
              "internalType": "address",
              "name": "nftContract",
              "type": "address"
            },
            {
              "internalType": "uint256",
              "name": "tokenId",
              "type": "uint256"
            },
            {
              "internalType": "address payable",
              "name": "seller",
              "type": "address"
            },
            {
              "internalType": "address payable",
              "name": "owner",
              "type": "address"
            },
            {
              "internalType": "uint256",
              "name": "price",
              "type": "uint256"
            },
            {
              "internalType": "bool",
              "name": "sold",
              "type": "bool"
            }
          ],
          "internalType": "struct NFTMarket.MarketItem[]",
          "name": "",
          "type": "tuple[]"
        }
      ],
      "stateMutability": "view",
      "type": "function"
    },
    {
      "inputs": [],
      "name": "fetchMarketItems",
      "outputs": [
        {
          "components": [
            {
              "internalType": "uint256",
              "name": "itemId",
              "type": "uint256"
            },
            {
              "internalType": "address",
              "name": "nftContract",
              "type": "address"
            },
            {
              "internalType": "uint256",
              "name": "tokenId",
              "type": "uint256"
            },
            {
              "internalType": "address payable",
              "name": "seller",
              "type": "address"
            },
            {
              "internalType": "address payable",
              "name": "owner",
              "type": "address"
            },
            {
              "internalType": "uint256",
              "name": "price",
              "type": "uint256"
            },
            {
              "internalType": "bool",
              "name": "sold",
              "type": "bool"
            }
          ],
          "internalType": "struct NFTMarket.MarketItem[]",
          "name": "",
          "type": "tuple[]"
        }
      ],
      "stateMutability": "view",
      "type": "function"
    },
    {
      "inputs": [],
      "name": "fetchMyNFTs",
      "outputs": [
        {
          "components": [
            {
              "internalType": "uint256",
              "name": "itemId",
              "type": "uint256"
            },
            {
              "internalType": "address",
              "name": "nftContract",
              "type": "address"
            },
            {
              "internalType": "uint256",
              "name": "tokenId",
              "type": "uint256"
            },
            {
              "internalType": "address payable",
              "name": "seller",
              "type": "address"
            },
            {
              "internalType": "address payable",
              "name": "owner",
              "type": "address"
            },
            {
              "internalType": "uint256",
              "name": "price",
              "type": "uint256"
            },
            {
              "internalType": "bool",
              "name": "sold",
              "type": "bool"
            }
          ],
          "internalType": "struct NFTMarket.MarketItem[]",
          "name": "",
          "type": "tuple[]"
        }
      ],
      "stateMutability": "view",
      "type": "function"
    },
    {
      "inputs": [],
      "name": "getListingPrice",
      "outputs": [
        {
          "internalType": "uint256",
          "name": "",
          "type": "uint256"
        }
      ],
      "stateMutability": "view",
      "type": "function"
    },
    {
      "inputs": [
        {
          "internalType": "address",
          "name": "tokenAddress",
          "type": "address"
        }
      ],
      "name": "setGameTokenAddress",
      "outputs": [],
      "stateMutability": "nonpayable",
      "type": "function"
    }
  ],
  "bytecode": "0x608060405266016bcc41e90000600455730522a16271503069a92e3811e868dd3a3cadf752600560006101000a81548173ffffffffffffffffffffffffffffffffffffffff021916908373ffffffffffffffffffffffffffffffffffffffff16021790555034801561007057600080fd5b50600160008190555033600360006101000a81548173ffffffffffffffffffffffffffffffffffffffff021916908373ffffffffffffffffffffffffffffffffffffffff160217905550611d21806100c96000396000f3fe6080604052600436106100705760003560e01c806358eb2df51161004e57806358eb2df5146100f65780639ff933d114610112578063c23b139e1461013b578063f064c32e1461016457610070565b80630f08efe01461007557806312e85585146100a0578063202e3740146100cb575b600080fd5b34801561008157600080fd5b5061008a61018f565b60405161009791906118e4565b60405180910390f35b3480156100ac57600080fd5b506100b56104bb565b6040516100c291906119a6565b60405180910390f35b3480156100d757600080fd5b506100e06104c5565b6040516100ed91906118e4565b60405180910390f35b610110600480360381019061010b9190611590565b610875565b005b34801561011e57600080fd5b506101396004803603810190610134919061152b565b610c44565b005b34801561014757600080fd5b50610162600480360381019061015d9190611554565b610d18565b005b34801561017057600080fd5b50610179611082565b60405161018691906118e4565b60405180910390f35b6060600061019d6001611432565b905060006101ab6002611432565b6101b56001611432565b6101bf9190611a61565b90506000808267ffffffffffffffff811115610204577f4e487b7100000000000000000000000000000000000000000000000000000000600052604160045260246000fd5b60405190808252806020026020018201604052801561023d57816020015b61022a611456565b8152602001906001900390816102225790505b50905060005b848110156104b057600073ffffffffffffffffffffffffffffffffffffffff16600660006001846102749190611a0b565b815260200190815260200160002060040160009054906101000a900473ffffffffffffffffffffffffffffffffffffffff1673ffffffffffffffffffffffffffffffffffffffff16141561049d576000600660006001846102d59190611a0b565b81526020019081526020016000206000015490506000600660008381526020019081526020016000209050806040518060e0016040529081600082015481526020016001820160009054906101000a900473ffffffffffffffffffffffffffffffffffffffff1673ffffffffffffffffffffffffffffffffffffffff1673ffffffffffffffffffffffffffffffffffffffff168152602001600282015481526020016003820160009054906101000a900473ffffffffffffffffffffffffffffffffffffffff1673ffffffffffffffffffffffffffffffffffffffff1673ffffffffffffffffffffffffffffffffffffffff1681526020016004820160009054906101000a900473ffffffffffffffffffffffffffffffffffffffff1673ffffffffffffffffffffffffffffffffffffffff1673ffffffffffffffffffffffffffffffffffffffff168152602001600582015481526020016006820160009054906101000a900460ff161515151581525050848681518110610480577f4e487b7100000000000000000000000000000000000000000000000000000000600052603260045260246000fd5b60200260200101819052506001856104989190611a0b565b945050505b80806104a890611aef565b915050610243565b508094505050505090565b6000600454905090565b606060006104d36001611432565b905060008060005b8381101561057c573373ffffffffffffffffffffffffffffffffffffffff166006600060018461050b9190611a0b565b815260200190815260200160002060040160009054906101000a900473ffffffffffffffffffffffffffffffffffffffff1673ffffffffffffffffffffffffffffffffffffffff161415610569576001836105669190611a0b565b92505b808061057490611aef565b9150506104db565b5060008267ffffffffffffffff8111156105bf577f4e487b7100000000000000000000000000000000000000000000000000000000600052604160045260246000fd5b6040519080825280602002602001820160405280156105f857816020015b6105e5611456565b8152602001906001900390816105dd5790505b50905060005b8481101561086a573373ffffffffffffffffffffffffffffffffffffffff166006600060018461062e9190611a0b565b815260200190815260200160002060040160009054906101000a900473ffffffffffffffffffffffffffffffffffffffff1673ffffffffffffffffffffffffffffffffffffffff1614156108575760006006600060018461068f9190611a0b565b81526020019081526020016000206000015490506000600660008381526020019081526020016000209050806040518060e0016040529081600082015481526020016001820160009054906101000a900473ffffffffffffffffffffffffffffffffffffffff1673ffffffffffffffffffffffffffffffffffffffff1673ffffffffffffffffffffffffffffffffffffffff168152602001600282015481526020016003820160009054906101000a900473ffffffffffffffffffffffffffffffffffffffff1673ffffffffffffffffffffffffffffffffffffffff1673ffffffffffffffffffffffffffffffffffffffff1681526020016004820160009054906101000a900473ffffffffffffffffffffffffffffffffffffffff1673ffffffffffffffffffffffffffffffffffffffff1673ffffffffffffffffffffffffffffffffffffffff168152602001600582015481526020016006820160009054906101000a900460ff16151515158152505084868151811061083a577f4e487b7100000000000000000000000000000000000000000000000000000000600052603260045260246000fd5b60200260200101819052506001856108529190611a0b565b945050505b808061086290611aef565b9150506105fe565b508094505050505090565b600260005414156108bb576040517f08c379a00000000000000000000000000000000000000000000000000000000081526004016108b290611966565b60405180910390fd5b600260008190555060008111610906576040517f08c379a00000000000000000000000000000000000000000000000000000000081526004016108fd90611986565b60405180910390fd5b600454341461094a576040517f08c379a000000000000000000000000000000000000000000000000000000000815260040161094190611926565b60405180910390fd5b6109546001611440565b60006109606001611432565b90506040518060e001604052808281526020018573ffffffffffffffffffffffffffffffffffffffff1681526020018481526020013373ffffffffffffffffffffffffffffffffffffffff168152602001600073ffffffffffffffffffffffffffffffffffffffff16815260200183815260200160001515815250600660008381526020019081526020016000206000820151816000015560208201518160010160006101000a81548173ffffffffffffffffffffffffffffffffffffffff021916908373ffffffffffffffffffffffffffffffffffffffff1602179055506040820151816002015560608201518160030160006101000a81548173ffffffffffffffffffffffffffffffffffffffff021916908373ffffffffffffffffffffffffffffffffffffffff16021790555060808201518160040160006101000a81548173ffffffffffffffffffffffffffffffffffffffff021916908373ffffffffffffffffffffffffffffffffffffffff16021790555060a0820151816005015560c08201518160060160006101000a81548160ff0219169083151502179055509050508373ffffffffffffffffffffffffffffffffffffffff166323b872dd3330866040518463ffffffff1660e01b8152600401610b4193929190611868565b600060405180830381600087803b158015610b5b57600080fd5b505af1158015610b6f573d6000803e3d6000fd5b50505050600360009054906101000a900473ffffffffffffffffffffffffffffffffffffffff1673ffffffffffffffffffffffffffffffffffffffff166108fc6004549081150290604051600060405180830381858888f19350505050158015610bdd573d6000803e3d6000fd5b50828473ffffffffffffffffffffffffffffffffffffffff16827fe95771a348b71754f4d83726d2c5fb07502935c9675a83e1b5f84e24263644a3336000876000604051610c2e949392919061189f565b60405180910390a4506001600081905550505050565b600360009054906101000a900473ffffffffffffffffffffffffffffffffffffffff1673ffffffffffffffffffffffffffffffffffffffff163373ffffffffffffffffffffffffffffffffffffffff1614610cd4576040517f08c379a0000000000000000000000000000000000000000000000000000000008152600401610ccb90611946565b60405180910390fd5b80600560006101000a81548173ffffffffffffffffffffffffffffffffffffffff021916908373ffffffffffffffffffffffffffffffffffffffff16021790555050565b60026000541415610d5e576040517f08c379a0000000000000000000000000000000000000000000000000000000008152600401610d5590611966565b60405180910390fd5b600260008190555060006006600083815260200190815260200160002060050154905060006006600084815260200190815260200160002060020154905081600560009054906101000a900473ffffffffffffffffffffffffffffffffffffffff1673ffffffffffffffffffffffffffffffffffffffff166370a08231336040518263ffffffff1660e01b8152600401610df8919061184d565b60206040518083038186803b158015610e1057600080fd5b505afa158015610e24573d6000803e3d6000fd5b505050506040513d601f19601f82011682018060405250810190610e489190611608565b1015610e89576040517f08c379a0000000000000000000000000000000000000000000000000000000008152600401610e8090611906565b60405180910390fd5b60006006600085815260200190815260200160002060030160009054906101000a900473ffffffffffffffffffffffffffffffffffffffff169050600560009054906101000a900473ffffffffffffffffffffffffffffffffffffffff1673ffffffffffffffffffffffffffffffffffffffff166323b872dd3383866040518463ffffffff1660e01b8152600401610f2393929190611868565b602060405180830381600087803b158015610f3d57600080fd5b505af1158015610f51573d6000803e3d6000fd5b505050506040513d601f19601f82011682018060405250810190610f7591906115df565b508473ffffffffffffffffffffffffffffffffffffffff166323b872dd3033856040518463ffffffff1660e01b8152600401610fb393929190611868565b600060405180830381600087803b158015610fcd57600080fd5b505af1158015610fe1573d6000803e3d6000fd5b50505050336006600086815260200190815260200160002060040160006101000a81548173ffffffffffffffffffffffffffffffffffffffff021916908373ffffffffffffffffffffffffffffffffffffffff16021790555060016006600086815260200190815260200160002060060160006101000a81548160ff0219169083151502179055506110736002611440565b50505060016000819055505050565b606060006110906001611432565b905060008060005b83811015611139573373ffffffffffffffffffffffffffffffffffffffff16600660006001846110c89190611a0b565b815260200190815260200160002060030160009054906101000a900473ffffffffffffffffffffffffffffffffffffffff1673ffffffffffffffffffffffffffffffffffffffff161415611126576001836111239190611a0b565b92505b808061113190611aef565b915050611098565b5060008267ffffffffffffffff81111561117c577f4e487b7100000000000000000000000000000000000000000000000000000000600052604160045260246000fd5b6040519080825280602002602001820160405280156111b557816020015b6111a2611456565b81526020019060019003908161119a5790505b50905060005b84811015611427573373ffffffffffffffffffffffffffffffffffffffff16600660006001846111eb9190611a0b565b815260200190815260200160002060030160009054906101000a900473ffffffffffffffffffffffffffffffffffffffff1673ffffffffffffffffffffffffffffffffffffffff1614156114145760006006600060018461124c9190611a0b565b81526020019081526020016000206000015490506000600660008381526020019081526020016000209050806040518060e0016040529081600082015481526020016001820160009054906101000a900473ffffffffffffffffffffffffffffffffffffffff1673ffffffffffffffffffffffffffffffffffffffff1673ffffffffffffffffffffffffffffffffffffffff168152602001600282015481526020016003820160009054906101000a900473ffffffffffffffffffffffffffffffffffffffff1673ffffffffffffffffffffffffffffffffffffffff1673ffffffffffffffffffffffffffffffffffffffff1681526020016004820160009054906101000a900473ffffffffffffffffffffffffffffffffffffffff1673ffffffffffffffffffffffffffffffffffffffff1673ffffffffffffffffffffffffffffffffffffffff168152602001600582015481526020016006820160009054906101000a900460ff1615151515815250508486815181106113f7577f4e487b7100000000000000000000000000000000000000000000000000000000600052603260045260246000fd5b602002602001018190525060018561140f9190611a0b565b945050505b808061141f90611aef565b9150506111bb565b508094505050505090565b600081600001549050919050565b6001816000016000828254019250508190555050565b6040518060e0016040528060008152602001600073ffffffffffffffffffffffffffffffffffffffff16815260200160008152602001600073ffffffffffffffffffffffffffffffffffffffff168152602001600073ffffffffffffffffffffffffffffffffffffffff168152602001600081526020016000151581525090565b6000813590506114e681611ca6565b92915050565b6000815190506114fb81611cbd565b92915050565b60008135905061151081611cd4565b92915050565b60008151905061152581611cd4565b92915050565b60006020828403121561153d57600080fd5b600061154b848285016114d7565b91505092915050565b6000806040838503121561156757600080fd5b6000611575858286016114d7565b925050602061158685828601611501565b9150509250929050565b6000806000606084860312156115a557600080fd5b60006115b3868287016114d7565b93505060206115c486828701611501565b92505060406115d586828701611501565b9150509250925092565b6000602082840312156115f157600080fd5b60006115ff848285016114ec565b91505092915050565b60006020828403121561161a57600080fd5b600061162884828501611516565b91505092915050565b600061163d83836117a1565b60e08301905092915050565b61165281611aa7565b82525050565b61166181611a95565b82525050565b61167081611a95565b82525050565b6000611681826119d1565b61168b81856119e9565b9350611696836119c1565b8060005b838110156116c75781516116ae8882611631565b97506116b9836119dc565b92505060018101905061169a565b5085935050505092915050565b6116dd81611ab9565b82525050565b6116ec81611ab9565b82525050565b60006116ff6033836119fa565b915061170a82611b67565b604082019050919050565b60006117226024836119fa565b915061172d82611bb6565b604082019050919050565b60006117456024836119fa565b915061175082611c05565b604082019050919050565b6000611768601f836119fa565b915061177382611c54565b602082019050919050565b600061178b601c836119fa565b915061179682611c7d565b602082019050919050565b60e0820160008201516117b7600085018261182f565b5060208201516117ca6020850182611658565b5060408201516117dd604085018261182f565b5060608201516117f06060850182611649565b5060808201516118036080850182611649565b5060a082015161181660a085018261182f565b5060c082015161182960c08501826116d4565b50505050565b61183881611ae5565b82525050565b61184781611ae5565b82525050565b60006020820190506118626000830184611667565b92915050565b600060608201905061187d6000830186611667565b61188a6020830185611667565b611897604083018461183e565b949350505050565b60006080820190506118b46000830187611667565b6118c16020830186611667565b6118ce604083018561183e565b6118db60608301846116e3565b95945050505050565b600060208201905081810360008301526118fe8184611676565b905092915050565b6000602082019050818103600083015261191f816116f2565b9050919050565b6000602082019050818103600083015261193f81611715565b9050919050565b6000602082019050818103600083015261195f81611738565b9050919050565b6000602082019050818103600083015261197f8161175b565b9050919050565b6000602082019050818103600083015261199f8161177e565b9050919050565b60006020820190506119bb600083018461183e565b92915050565b6000819050602082019050919050565b600081519050919050565b6000602082019050919050565b600082825260208201905092915050565b600082825260208201905092915050565b6000611a1682611ae5565b9150611a2183611ae5565b9250827fffffffffffffffffffffffffffffffffffffffffffffffffffffffffffffffff03821115611a5657611a55611b38565b5b828201905092915050565b6000611a6c82611ae5565b9150611a7783611ae5565b925082821015611a8a57611a89611b38565b5b828203905092915050565b6000611aa082611ac5565b9050919050565b6000611ab282611ac5565b9050919050565b60008115159050919050565b600073ffffffffffffffffffffffffffffffffffffffff82169050919050565b6000819050919050565b6000611afa82611ae5565b91507fffffffffffffffffffffffffffffffffffffffffffffffffffffffffffffffff821415611b2d57611b2c611b38565b5b600182019050919050565b7f4e487b7100000000000000000000000000000000000000000000000000000000600052601160045260246000fd5b7f596f7520646f6e7420686176652073756666696369656e742067616d6520746f60008201527f6b656e7320746f2062757920746865206e667400000000000000000000000000602082015250565b7f5072696365206d75737420626520657175616c20746f206c697374696e67207060008201527f7269636500000000000000000000000000000000000000000000000000000000602082015250565b7f4f6e6c79206f776e65722063616e207365742074686520746f6b656e2061646460008201527f7265737300000000000000000000000000000000000000000000000000000000602082015250565b7f5265656e7472616e637947756172643a207265656e7472616e742063616c6c00600082015250565b7f5072696365206d757374206265206174206c6561737420312077656900000000600082015250565b611caf81611a95565b8114611cba57600080fd5b50565b611cc681611ab9565b8114611cd157600080fd5b50565b611cdd81611ae5565b8114611ce857600080fd5b5056fea2646970667358221220ceb9b08e4473cf5b412ea5c8f507167b893f95e85bbb5025a6f62b2e5696376464736f6c63430008040033",
  "linkReferences": {},
  "deployedLinkReferences": {}
}